:020000040800F2
:10000000B8290020890100085B110008FB100008D6
:1000100059110008F30200086D16000800000000E6
:10002000000000000000000000000000791400083B
:10003000F5020008000000005D1100087B140008B4
:10004000A3010008A3010008A3010008A301000800
:10005000A3010008A3010008A3010008A3010008F0
:10006000A3010008A3010008A3010008A3010008E0
:10007000A3010008A3010008A3010008A3010008D0
:10008000A3010008A3010008A3010008A3010008C0
:10009000A3010008A3010008A3010008A3010008B0
:1000A000A3010008A3010008A3010008A3010008A0
:1000B000A3010008A3010008A3010008A301000890
:1000C000A3010008A3010008A3010008A301000880
:1000D000A3010008A3010008A3010008A301000870
:1000E000A3010008A3010008A301000800F002F822
:1000F00000F03AF80AA090E8000C82448344AAF188
:100100000107DA4501D100F02FF8AFF2090EBAE885
:100110000F0013F0010F18BFFB1A43F0010318473B
:10012000C8340000E8340000103A24BF78C878C111
:10013000FAD8520724BF30C830C144BF04680C60ED
:10014000704700000023002400250026103A28BF35
:1001500078C1FBD8520728BF30C148BF0B60704739
:100160001FB51FBD10B510BD00F08AF81146FFF78E
:10017000F7FF02F04BFD00F0A8F803B4FFF7F2FF21
:1001800003BC00F0AFF80000094880470948004769
:10019000FEE7FEE7FEE7FEE7FEE7FEE7FEE7FEE737
:1001A000FEE7FEE704480549054A064B7047000094
:1001B000CF140008ED000008B8230020B829002063
:1001C000B8250020B825002010B5203AC0F00B80DB
:1001D000B1E81850203AA0E81850B1E81850A0E84B
:1001E0001850BFF4F5AF5FEA027C24BFB1E81850A5
:1001F000A0E8185044BF18C918C0BDE810405FEA15
:10020000827C24BF51F8043B40F8043B08BF704790
:10021000D20728BF31F8023B48BF11F8012B28BF95
:1002200020F8023B48BF00F8012B70474FF0000256
:1002300000B5134694469646203922BFA0E80C50DC
:10024000A0E80C50B1F12001BFF4F7AF090728BFB7
:10025000A0E80C5048BF0CC05DF804EB890028BF33
:1002600040F8042B08BF704748BF20F8022B11F05C
:10027000804F18BF00F8012B7047704770477047D8
:10028000754600F02BF8AE4605006946534620F04F
:100290000700854618B020B5FFF784FFBDE8204071
:1002A0004FF000064FF000074FF000084FF0000B32
:1002B00021F00701AC46ACE8C009ACE8C009ACE8E5
:1002C000C009ACE8C0098D46704710B50446AFF3CD
:1002D00000802046BDE81040FFF74FBF0048704740
:1002E0005823002001491820ABBEFEE7260002007B
:1002F0007047FEE770470022AFF3008030B50E4B29
:10030000054601205C7A012C15D8587A00241C542B
:10031000587A03EB800045605D7A03F108002A54A7
:10032000587A421C5A72303008703A2048702F2098
:100330008870CC70002030BD4C23002070B504467E
:1003400000F004F90546601C02D00448007804441B
:1003500000F0FCF8401BA042FAD370BD280000203A
:100360002DE9F84FDFF8B8910024A9F1040B2346DA
:100370000F2709F1040AABF1040EC9E00125A540DD
:100380002A40AA427DD1674ED1F804C0ACEB0608E2
:10039000B44532D014DCBCF1030F3AD009DCBCF117
:1003A000000F2AD0BCF1010F1CD0BCF1020F31D1DB
:1003B0001DE0BCF1110F17D0BCF1120F2AD119E0CA
:1003C000B8F5881F19D006DCB8F5803F15D0B8F510
:1003D000801F1FD111E0B8F5001F0ED0B8F5041F23
:1003E00018D10AE0CB6815E0CB681B1D12E0CB6882
:1003F00008330FE0CB680C330CE08B682BB1012B7A
:100400004FF0080303D0456104E0042302E00561D6
:1004100000E00023FF2A01D8064601E000F10406AF
:100420004FEA840501D9A5F12005D6F8008007FA26
:1004300005FC28EA0C0803FA05F548EA0508C6F8A1
:1004400000804D68ED0062D5374DAE6946F001067B
:10045000AE61AD6924F0030605F001050095334D4A
:1004600006EB050CDCF80850A607360F07FA06F86D
:1004700025EA0805DFF8B880404503D14FF00008B1
:1004800017E044E0DFF8AC80404502D14FF00108AE
:100490000FE0DFF8A480404502D14FF0020808E0E9
:1004A000DFF89880404502D14FF0030801E04FF09B
:1004B000040808FA06F848EA0508CCF808804D68F0
:1004C000D9F80060ED024D4601D5164300E0964391
:1004D0002E604D68DAF80060AD02554601D516432E
:1004E00000E096432E604D68DBF80060AD035D468A
:1004F00001D5164300E096432E604D68DEF800609B
:10050000ED03754601D5164300E096432E60641C4A
:100510000D682A46E5407FF431AFBDE8F88F000052
:1005200008040140000011100010024000000140CA
:1005300000080140000C014000100140001401407F
:100540000AB1016170470904FBE7000001488068B7
:10055000704700002800002002488168027811449A
:100560008160704728000020074810B5016841F0FD
:1005700010010160032000F067F80F2000F006F87A
:1005800000F024F8002010BD0020024070B50D4D91
:1005900004464FF47A712878B1FBF0F00A490968F3
:1005A000B1FBF0F000F095FD48B9102C07D2002205
:1005B0002146501E00F028F800206C6070BD01201C
:1005C00070BD000028000020340000200C4808B551
:1005D000816941F001018161816901F001010091AE
:1005E000C16941F08051C161C06900F08050009044
:1005F0000448416821F0E06141F00071416008BDAC
:100600000010024000000140F0B40E4B1B680C4685
:10061000C3F30223C3F10705042D00D90425191DD6
:10062000072901D2002300E0DB1E012606FA05F1AE
:10063000491E214099409E40761E16403143F0BC31
:1006400001F015B80CED00E0064900F0070208685B
:100650004FF6FF03184040EA0220034A10430860A7
:10066000704700000CED00E00000FA052DE9F047AE
:100670000F46050061D0434E306800F00700B842D5
:1006800009D2306820F0070038433060306800F04D
:100690000700B84251D128683B4C810712D540076A
:1006A00003D5606840F4E06060602878000703D5F7
:1006B000606840F4605060606068A96820F0F000F5
:1006C000084360602878C00728D06868012810D0E7
:1006D0002168022810D0890700292EDA616821F0EC
:1006E000030101436160FFF731FF804641F2883921
:1006F0000DE021688903EFE78901EDE7FFF726FFA9
:10070000A0EB0801494502D90320BDE8F0876068E5
:10071000696800F00C00B0EB810FEFD1306800F099
:100720000700B8420BD9306820F00700384330602A
:10073000306800F00700B84201D00120E5E72878D2
:10074000400705D56068E96820F4E0600843606010
:100750002878000706D56068296920F4605040EACF
:10076000C100606000F018F86168084AC1F3031125
:10077000515CC8400649086006480068FFF706FF5C
:100780000020C2E700200240001002405C30000858
:10079000340000202C0000200E4A51680E4801F061
:1007A0000C03042B11D0082B0FD10C48C1F3834349
:1007B000C903C05C0AD55168084AC1F34041921E82
:1007C000515C054A5043B0FBF1F07047044948437F
:1007D000704700000010024000127A004C30000800
:1007E00000093D002DE9F84F040070D02078C04D7D
:1007F000C00749D06868C0F38100012807D0686845
:10080000C0F38100022809D16868C00306D52868B2
:10081000800339D560680028E7D035E06068B0F51E
:10082000803F0BD010B1B0F5A02F11D0286820F474
:1008300080302860286820F4802002E0286840F496
:1008400080302860606890B1FFF780FE06460AE0BD
:10085000286840F480202860F0E700BFFFF776FEAC
:10086000801B642873D828688003F7D50CE0FFF755
:100870006DFE064605E000BFFFF768FE801B64289A
:10088000F0D828688003F7D420789A4E80074FF07C
:1008900001094FF0000839D5686810F00C0F07D037
:1008A0006868C0F38100022809D16868C00306D4D3
:1008B0002868800714D52069012808D110E0206934
:1008C000B0B1C6F80090FFF741FE074605E00AE127
:1008D000FFF73CFEC01B0228C4D828688007F7D564
:1008E0002868616920F0F80040EAC10028600DE046
:1008F000C6F80080FFF72AFE074604E0FFF726FE51
:10090000C01B022823D828688007F7D42078000766
:100910002CD57948A169D9B1C0F80090FFF716FE2F
:10092000074604E0FFF712FEC01B02280FD8686AD2
:100930008007F7D571484FF4FA510068B0FBF1F029
:10094000009000BF0098411E0091FAD20EE080E0B6
:10095000C0F80080FFF7FAFD074604E0FFF7F6FD58
:10096000C01B022875D8686A8007F7D42078400732
:1009700060D5E8690027C00008D4E86940F08050DD
:10098000E861E869012700F0805000905C48016848
:10099000C90513D40168834641F480710160FFF7F3
:1009A000D5FD824606E000BFFFF7D0FDA0EB0A00B0
:1009B00064284ED8DBF80000C005F5D5E0680128B2
:1009C0000AD008B1052813D0286A20F00100286257
:1009D000286A20F0040002E0286A40F00100286242
:1009E000E06841F2883B98B1FFF7B0FD82460BE02A
:1009F000286A40F004002862EEE700BFFFF7A6FD7A
:100A0000A0EB0A0159455AD8286A8007F6D50CE0B0
:100A1000FFF79CFD824605E0FFF798FDA0EB0A0179
:100A200059454CD8286A8007F6D41FB1E86920F0F0
:100A30008050E861E06988B36968C1F381010229E7
:100A400044D00228C6F8608004D0FFF77FFD04463A
:100A500038E034E0FFF77AFD074604E0FFF776FD63
:100A6000C01B02282BD828688001F7D4206AB0F573
:100A7000803F05D16868A16820F4003008436860B1
:100A8000D4E908010843696821F4741108436860D7
:100A9000C6F86090FFF75AFD044606E025E000BF67
:100AA000FFF754FD001B022809D828688001F7D5FC
:100AB0001BE000BFFFF74AFD001B022802D90320FC
:100AC000BDE8F88F28688001F4D40EE00128F7D043
:100AD0006868226A00F48031914204D1616A00F4AE
:100AE0007010884201D00120EAE70020E8E700000A
:100AF00000100240000042428004424234000020C4
:100B00000070004070B5040009D0606A002540B153
:100B100025616561A56294F8510040B10CE00120A7
:100B200070BD6068B0F5827FF4D0E561F2E784F8CB
:100B30005050204600F040F8022084F85100206810
:100B4000016821F040010160A088218900F48270D1
:100B500001F404410843A18901F400610843217CA8
:100B600001F002010843217D01F001010843218BBE
:100B700001F400710843217F01F03801084394F823
:100B8000201001F080010843218D01F40051084339
:100B900021680860A069042101EA104021684860CA
:100BA0002068C16921F40061C1616565012084F894
:100BB0005100002070BD000030B585B000240094C5
:100BC00001940294039400681449884223D1144884
:100BD000816941F480518161816901F480510491FE
:100BE000816941F00401816180690E4D00F00400CB
:100BF0000490A020009002200190032003906946F9
:100C00002846FFF7ADFB4020CDE9000469462846A1
:100C10000294FFF7A5FB05B030BD00000030014095
:100C200000100240000801402DE9F84F044690F8FA
:100C300051001D4616460F46012838D160684FF016
:100C40000408B0F5827F01D1A06830B3FFF77EFCC5
:100C50008246002F75D0002E73D094F850000128E2
:100C600025D04FF0010984F8509084F851804FF05E
:100C70000008C4F85480A763A687E687C4F83080CC
:100C8000A4F83480A4F83680C4F84080C4F84480C6
:100C9000A068B0F5004F0CD015E084F851800093A7
:100CA00013460A46204600F01CF9BDE8F88F0220E2
:100CB000FBE72068016821F04001016020680168BD
:100CC00021F48041016020680168490603D401686D
:100CD00041F040010160E068C0B134E02068816803
:100CE000C90709D0007BA16B0870A06B401CA063F2
:100CF000E08F401EE08709E0FFF728FCA0EB0A0028
:100D0000A84202D3681C01D032E085B3E08F0028EE
:100D1000E4D11BE020688168C90709D0C068A16BD5
:100D20000880A06B801CA063E08F401EE0870AE073
:100D3000FFF70CFCA0EB0A00A84203D3681C02D00A
:100D400016E012E09DB1E08F0028E3D1524629461B
:100D5000204600F0DDFA08B12020606584F851904B
:100D600084F85080606D00289FD001209DE7FFE748
:100D700084F8519084F85080032096E72DE9F84FCD
:100D8000984616468A460446FFF7E0FB814694F8EB
:100D9000510001281ED1BAF1000F73D0002E71D07E
:100DA00094F85000012815D0012784F850700320D2
:100DB00084F8510000256565C4F830A0A686E68653
:100DC000A563A587E58765642564A068B0F5004F35
:100DD00003D00CE00220BDE8F88F2068016821F004
:100DE000400101602068016841F480410160206891
:100DF0000168490603D4016841F040010160E068E0
:100E0000B0F5006F606803D048B3012E27D047E0EB
:100E100008B1012E1FD1206B21680088C86006E050
:100E200020688168890709D5216B0988C160206B1A
:100E3000801C2063E08E401EE0860CE0FFF786FBFE
:100E4000A0EB0901414503D3B8F1FF3F03D035E0E2
:100E5000B8F1000F32D0E08E0028E1D123E0206B02
:100E600021680078087306E02068816889070AD540
:100E7000216B09780173206B401C2063E08E401EBB
:100E8000E0860DE02BE0FFF761FBA0EB0901414597
:100E900003D3B8F1FF3F03D010E0B8F1000F0DD03D
:100EA000E08E0028E0D14A464146204600F05EFA36
:100EB00008B120206065A06830B109E084F8517065
:100EC00084F85050032086E72068C168806800904D
:100ED00084F8517004F8505F60680028F3D0012056
:100EE00079E72DE9FF4F81B01D46934604464FF048
:100EF00001090E9EFFF72AFB074694F8510061682E
:100F0000012806D0B1F5827F3CD1A168C9BB042875
:100F100038D10298002871D0BBF1000FFBD0002D12
:100F2000F9D094F8500001282CD04FF0010A84F831
:100F300050A094F85100042802D0052084F85100F4
:100F40004FF00008C4F85480C4F838B0E587A5878E
:100F500002992163E586A586C4F84080C4F84480E0
:100F600020680168490603D4016841F0400101602E
:100F7000E068B0F5006F606808D0F0B3012D49D08B
:100F800081E0FFE7022005B0BDE8F08F08B1012D38
:100F900039D1206B21680088C860206B801C2063D9
:100FA000E08E401EE0862EE02068816889070FD51C
:100FB000E18E69B1B9F1010F0AD1216B0988C160D5
:100FC000206B801C2063E08E401EE0864FF00009FD
:100FD00020688168C9070CD0E18F51B1C068A16B4E
:100FE0000880A06B801CA063E08F401EE0874FF05C
:100FF0000109FFF7ABFAC01B01E00BE067E0B0426C
:1010000001D3701C50D1E08E0028CDD1E08F002894
:10101000CAD13EE0206B216800780873206B401C29
:101020002063E08E401EE0862DE0206881688907FD
:101030000FD5E18E69B1B9F1010F0AD1216B0978A1
:101040000173206B401C2063E08E401EE0864FF051
:10105000000920688168C9070CD0E18F51B1C068D0
:10106000A16B0870A06B401CA063E08F401EE0875E
:101070004FF00109FFF76AFAC01BB04202D3701C9F
:1010800001D011E086B1E08E0028CED1E08F00289B
:10109000CBD13A463146204600F068F950B12020C5
:1010A000606584F8508012E084F851A084F8508084
:1010B000032068E7A06818B92068C16880680090BC
:1010C00084F851A084F85080606D0028F1D0012090
:1010D00059E710B5401EB0F1807F01D3012010BD4B
:1010E0004FF0E02460610F21601700F0C0FA00208B
:1010F000A06107202061002010BDFEE710B5044963
:101100000448FFF7F8F80249491E087010BD0000B6
:10111000220000200C0000200E4810B50C49016090
:101120004FF48271416000218160C1604FF4007210
:101130000161C0E90512C1610162416281620A2157
:10114000C162FFF7DFFC002801D072B6FEE710BDD8
:101150000030014040000020FEE7FEE7704700003D
:101160002DE9F041054621484FF6FF740078032829
:1011700000D04902FF22112000F03CF81C4E38B18B
:10118000012211463046FFF7DBF90120BDE8F0816E
:10119000FF2000F005F9FF2808D0FE280BD001221F
:1011A00011463046FFF7CCF90220EFE7641E240415
:1011B000240CEDD1F3E700244FF40077FF2000F07A
:1011C000EFF82855641CA4B2BC42F7D3FF2000F00E
:1011D000E7F8FF2000F0E4F8012211463046FFF75F
:1011E000AFF9FF2000F0DCF80020CFE7200000205E
:1011F000000C01407FB540F040008DF80000080E63
:101200008DF80100080C8DF80200080A8DF8041012
:101210008DF803008DF805204FF6FF7400220121A0
:101220000F48FFF78DF9012000F068F84FF0FF3507
:101230002B46062269460B48FFF7A0FD2B460122EC
:1012400002A90848FFF7F0FC9DF80800000603D546
:10125000641E2404240CF1D19DF8080004B070BD74
:10126000000C0140400000202DE9F04106462148D5
:101270000078032800D04902FF221820FFF7BAFFA8
:101280001D4D38B1012211462846FFF759F90120BA
:10129000BDE8F081FE2000F083F800244FF40077D1
:1012A000305D00F07DF8641CA4B2BC42F8D3FF208E
:1012B00000F076F8FF2000F073F8FF2000F070F8DF
:1012C00000F01F00052806D0012211462846FFF72E
:1012D00037F90220DCE7FF2000F062F80028FAD09E
:1012E000012211462846FFF72BF9FF2000F058F89D
:1012F0000020CDE720000020000C014010B504467E
:1013000002E0FF2000F04CF8641EE4B2F9D210BDF8
:10131000F8B5044640684FF48273984217D1A0682C
:101320004FF48065B0F5004F01D0A8420FD120687E
:10133000066826F0400606606068984207D1A068FB
:10134000A84204D100920B460022012103E0009242
:101350000B4600228021204600F032F8002804D0FD
:10136000606D40F0200060650320F8BDF8B51546BB
:101370000E460B46009204460122022100F020F89E
:1013800040B93346002280212046009500F018F82D
:10139000002804D0606D40F0200060650320F8BD97
:1013A00001B582B04FF0FF300090012301AA02A9DD
:1013B0000248FFF796FD9DF804000EBD4000002096
:1013C0002DE9F8431E46914688460446089DFFF7DE
:1013D000BDF8401B351AFFF7B9F8074625480068E5
:1013E000C0F3CB30684338E0701C37D0FFF7AEF85D
:1013F000C01BA84203D215B1009860B32CE020684E
:10140000416821F0E00141606068B0F5827F0BD156
:10141000A068B0F5004F02D0B0F5806F04D120680D
:10142000016821F040010160A06AB0F5005F09D1B8
:101430002068016821F4005101602068016841F4CE
:1014400000510160012084F85100002084F8500010
:101450000320BDE8F8830025401E009020688168C5
:1014600038EA010004D000214945BDD10020F0E751
:101470000121F9E7340000207047FFF76DB810B57F
:1014800090B028216846FEF7D1FE14210AA8FEF785
:10149000CDFE022000900120049010200024059031
:1014A00007946846FFF79EF908B172B6FEE70F2071
:1014B000CDE90A040C940D9400210AA80E94FFF7BC
:1014C000D5F8002801D072B6FEE710B010BD704705
:1014D0002DE9FC41434D012211462846FFF730F823
:1014E0000A20FFF70BFF40F2FF1400219522084667
:1014F000FFF780FE0646012211462846FFF720F836
:10150000FF20FFF74DFF012E04D0641E2404240C9D
:10151000EBD15AE0002C58D087224FF4D571082027
:10152000FFF768FE304E012812D001203070FF22F4
:101530004FF400711020FFF75DFE0122114628468E
:10154000FEF7FEFFFF20FFF72BFF0020BDE8FC8128
:10155000002401AFFF20FFF723FF3855641CE4B2DD
:10156000042CF7D34FF6FF744FF08048FF22002180
:101570003720FFF73FFEFF2241462920FFF73AFEC2
:101580000746012211462846FEF7DAFFFF20FFF743
:1015900007FF27B1641E2404240CE7D115E0A4B191
:1015A000FF2200213A20FFF725FE00246F46FF208E
:1015B000FFF7F6FE3855641CE4B2042CF7D39DF80F
:1015C0000000400603D5032002E00120BEE7022010
:1015D0003070012211462846FEF7B2FFFF20FFF7C8
:1015E000DFFEA4E7000C01402000002039B10129F2
:1015F0000CD0022905D0032906D004207047002012
:1016000070474FF4007003E0012001E04FF4004008
:101610001080F4E72DE9F0411D4616460F460024E0
:1016200009E0311907EB4420FFF79AFD10B10120C2
:10163000BDE8F081641CAC42F3D30020F8E7002041
:1016400070472DE9F0411D4616460F46002409E07B
:10165000311907EB4420FFF707FE10B10120BDE868
:10166000F081641CAC42F3D30020F8E7FEE70907E1
:10167000090E002804DB00F1E02080F80014704718
:1016800000F00F0000F1E02080F8141D704700000A
:1016900010B5044600F5805000220271521EC2624D
:1016A000204601F04DFB08B1032010BDB4F8FE0147
:1016B000A0F52A41553901D0022010BD94F836001A
:1016C000B4F8371040EA01210848B0EB012F08D0E8
:1016D00094F85210B4F8532041EA0221B0EB012FE4
:1016E00001D1002010BD012010BD00000046415472
:1016F00000E0401C02780AB18A42FAD1D0B27047A9
:10170000F0B50022174B144600F5805002EB42065C
:1017100053F826506DB10768BD420BD103EB860527
:1017200087686E68BE4205D12D89C688B54204D04F
:1017300000E00124521C022AE8D3022A01D079B920
:1017400004E05CB9022909D01220F0BD02EB42008E
:1017500003EB80004089B0F5807F01D00020F0BD10
:101760001020F0BD3421002030B50021064A0C467F
:1017700001EB410352F82350854201D142F8234046
:10178000491C0229F4D330BD3421002000F58050DB
:10179000426A006800F58050438980784343B1FB7A
:1017A000F3F0121D02CA19B1884203D3401AF8E7B8
:1017B0000020704711680844704700F58050891E6A
:1017C0004269921E8A4201D800207047826A80785E
:1017D00001FB002070472DE9F04180460F0000F525
:1017E000805407D0404601F025F9022809D2012093
:1017F000BDE8F081E66816B16069B04207D80126FD
:1018000005E0411CF4D061698142F1D83E4635467D
:1018100060696D1CA84202D80225022E0AD329460F
:10182000404601F007F938B1411CE1D00128DFD072
:10183000B542EDD10020DBE76FF07042294640460B
:1018400001F09AFA30B957B12A463946404601F0BC
:1018500093FA20B101280DD001252846C8E7E5609C
:101860002069411CF9D0401E2061607940F00100E0
:101870006071F2E74FF0FF35EFE700002DE9F84F18
:1018800088460D6800E06D1C29782F29FBD05C2963
:10189000F9D000F5805A0024DAF820702646A85DB9
:1018A000761C202817D32F2815D05C2813D0FF2CA6
:1018B00031D2012100F0E4FE5FEA00092BD0B9F13A
:1018C000800F04D2014668A0FFF712FF18BB27F86B
:1018D0001490641CE3E7AA19C8F80020202801D25C
:1018E000042516E0002514E007EB440030F8020C54
:1018F00020280DD02E280BD06CB1002027F8140022
:101900000B222021DAF8180001F013FA002606E075
:10191000641E002CE8D10620BDE8F88F761C37F84D
:1019200016002028FAD02E28F8D01EB145F0030565
:1019300000E0641E2CB107EB440030F8020C2E28A6
:10194000F7D1002081464FF0080B009037F81600C1
:1019500006F101065FEA000824D0B8F1200F04D098
:10196000B8F12E0F04D1A64202D045F00305EDE7F1
:101970000098584501D2A6421AD1BBF10B0F0FD0E7
:10198000A64201D045F003050CD84FF008000090A6
:101990004FEA896026464FF00B0B4FEA1069D5E7F6
:1019A00045F00305DAF818000178E52938D039E068
:1019B0004046B8F1800F10D3002100F061FE5FEACD
:1019C000000805D02B4901EB080010F8800C804678
:1019D00045F00205B8F1000F04D0014626A0FFF73C
:1019E00087FE20B14FF05F0845F003050FE0A8F136
:1019F0004100192802D849F0020908E0A8F1610065
:101A0000192804D8413049F001091FFA80F8DAF8A2
:101A10001820009902F801800098401C009095E77A
:101A200005210170BBF1080F03D14FEA89604FEA2D
:101A30001069C9F38100032803D06FEA09018907FF
:101A400001D145F00205A90709D409F003010129D4
:101A500001D145F01005012801D145F00805DAF85B
:101A60001800C572002057E7222A3A3C3E3F7C7F8F
:101A7000000000006C3000082B2C3B3D5B5D00003B
:101A8000401E022815D20C4B00EB400203EB8201F2
:101A90004889B0F5807F05D008B1401E80B24881EA
:101AA00010B104E00020FAE7002043F822000020F3
:101AB0007047022070470000342100202DE9F14FCB
:101AC00082B00021029800F007FA00287AD1029D26
:101AD000FF2005F580554FF6FF7A00908146A5F866
:101AE00024A02969286801F02BF906000DD16C6942
:101AF000207848B1E17AE52801F03F016DD00A076E
:101B000004D50F2969D107E0042671E00F2903D01D
:101B1000B9F1000F4AD04FE0296A89B3420606D5D1
:101B2000627B009220F04000EA888146AA84484502
:101B300035D1627B0098824231D101912078A04654
:101B400020F04000401E00EB80010027DFF8A8B025
:101B500001EBC006012400BF1BF8071001EB0800D1
:101B6000008874B100F0A8FD0446FF2E17D201983A
:101B700030F81600761C00F09FFDA0420FD102E065
:101B80002FE050450BD17F1C0D2FE5D398F80000B6
:101B9000400608D53CB1019830F8160018B1FF2076
:101BA00000F0FF091DE0A9F10100F9E7204601F06E
:101BB000ADF9009988421BD0A869C17AC9070CD138
:101BC0000A2102E015E0491E06D314F8012B10F893
:101BD000013BD21AF7D000E052B14FF0FF09A5F84F
:101BE00024A00021029800F009F806003FF479AF24
:101BF0003046BDE8FE8F0000EC3000082DE9F041D2
:101C000000F580540F46E688761C3004000C38D06E
:101C1000216991B3206800F5805253895B09B6FBB6
:101C2000F3F503FB1563002B67D1491C2161E168C3
:101C300021B3538992785B09B6FBF3F3521E13422A
:101C40005BD100F0F7FE054601281FD9681C39D08A
:101C5000206841F214010958A94248D86FB1E168DF
:101C6000FFF7B9FD05000FD0012D0FD0681C29D05A
:101C7000206801F0ACF928BB0AE002E01089B0420C
:101C80003BD80420BDE8F0810720FBE70220F9E7FC
:101C900041F20A0120680A5A002101F04AF8294657
:101CA0002068FFF78AFD2168002701F580514FF079
:101CB0000108C8620FE000BF80F80480206801F0CE
:101CC00086F908B10120DDE7206800F58050C16A7F
:101CD000491C7F1CC162206800F580508178B942A0
:101CE000EAD8216801F58051C96AC91BC162E56063
:101CF00029462068FFF761FD2061E68041F20A0174
:101D00002068095A4909B6FBF1F201FB126100EBA8
:101D1000411060610020B5E72DE9F14F84B00C223D
:101D2000049C684604F58054A769266A394600F089
:101D3000F7FF9DF80B00C00718D00020F8720125AE
:101D400020622B4632466946384600F033FE04983E
:101D5000FFF7B4FE10B96D1C642DF2D3642D0BD0C7
:101D600004280AD19DF80B00F87226629DF80B003A
:101D700080070FD5002004E0072005B0BDE8F08FF4
:101D8000401C36F810100029FAD10D211930B0FB93
:101D9000F1F600E00126049D0021284600F09CF8A1
:101DA000A8B94FF0000805F580573969386800F088
:101DB000C7FF60B978690078E5280BD050B14FF0C3
:101DC000000801212846FFF719FF0028EDD004285C
:101DD00012D012E008F101083046B045F1D1461E9C
:101DE0005FEA060A59D0E1880498A1EB0A0100F0E5
:101DF00073F8050003D06BE00720054668E0A06992
:101E000001F084F803902169206800F099FF050033
:101E10005ED16169D4F82090039848730F20C8728E
:101E20000020087388760AF0FF0BC876ABF101003A
:101E300000EB800202EBC00500234FF6FF7E254E2B
:101E40004A1C01E0604503D039F81500F4466D1CCA
:101E5000F75CC85516F80380070A08F8027000B945
:101E600060465B1C0D2BEDD3704502D039F8150090
:101E700008B94BF0400B81F800B02168012001F552
:101E80008051087100210498FFF7B8FE05001FD1AA
:101E9000AAF101005FEA000AB5D12169206800F0CB
:101EA0004FFF050014D120220021606900F041FF9E
:101EB000D4E905010B2200F033FFA0696169C07A03
:101EC00000F0180008732168012001F580510871A5
:101ED000284652E7EC30000870B500F580540D46F6
:101EE000E180A368012B42D0206800F58050416951
:101EF00099423CD923B90178032906D1436A23B119
:101F0000418980784E09464312E00189A9422ED9C1
:101F1000406A13E000F08EFD0346401C25D0022BE2
:101F200025D3206800F58050406998421FD9AD1B29
:101F30002068B5421946EDD2FFF73FFCE360B0B12F
:101F400021680A4601F580514B895B09B5FBF3F323
:101F50001844206148894009B5FBF0F100FB11509D
:101F600002EB40106061002070BD012070BD0220B6
:101F700070BD0000084910B50B5C002253B9012266
:101F80000A540A1801EB8000127A40680168104672
:101F900088470246104610BD4C23002030B4054C43
:101FA000231804EB80001B7A406804691846A44695
:101FB00030BC60474C23002030B4054D2C1805EB95
:101FC0008000247A406885682046AC4630BC604773
:101FD0004C230020044A111802EB8000097A406863
:101FE00042680846104700004C23002030B4054DDD
:101FF0002C1805EB8000247A4068C5682046AC4662
:1020000030BC60474C23002010B5044600F003FAB2
:1020100000280DD1204601F003F8002808D104F56E
:102020008054A06AFFF72CFD002801D10021216017
:1020300010BD00002DE9F74181B090460298009054
:10204000684600F06CFD040003D50B2004B0BDE829
:10205000F081104E002756F824502DB12846FFF786
:1020600083FB05F580552F700198002803D000BF31
:102070004FF480510F5446F8240002D0B8F1010FFC
:1020800001D00020E2E7002202A901A800F026FB0F
:10209000DCE700003C0000202DE9F74FADF5825D44
:1020A00098B100F580564FF0000802F01F0741F28A
:1020B000440127F0010269440DF58050C6F8008004
:1020C00000F00CFB040006D0D8E0092013B00DF599
:1020D000805DBDE8F08F41F228010DF58050694424
:1020E000816168490162EB46416C584600F02CFC66
:1020F00004000DF5805045690BD11DB1780803D05F
:10210000012102E0062404E000215846FFF7F8FA16
:10211000044617F01C0F75D04FF0010AECB1042CE7
:1021200014D158490020183902E0401C022805D279
:1021300000EB400251F82220002AF6D1022803D0F9
:102140005846FFF7E9FD00E0122004460DF58050E7
:1021500047F00807456954B190E0E87A10F0110F94
:1021600001D007248AE0780701D5082486E03807E3
:1021700056D500F0D2FCA873010AE973010C29744A
:10218000000E687485F80B8085F81C8085F81D802A
:1021900085F81E800DF5805085F81F80006829465F
:1021A00000F028FD81460021284600F0A7FE0DF52D
:1021B0008050B9F1000F006800F5805080F804A04D
:1021C0002CD00DF580504946006800F58050D0F8BD
:1021D0002CA00DF58050006800F05DFE04004DD18C
:1021E0000DF58050A9F10101006800F58050C16033
:1021F0000DF580505146006800F0A2FD04000BD0A0
:102200003CE0FFE7D4BBE87AC10601D5042435E001
:10221000B90701D5C007A4D1380701D547F0200779
:102220000DF58050006800F58050C06AC6E90705CA
:10223000780801D0012100E00021584600F08EFC12
:10224000B062E8B1B7710DF5805086F80780474657
:102250000068294600F0CEFC3061287FD5F81D10BB
:1022600040EA0120C6E90270B7610DF5805077623F
:102270000068306000F58050C088B080204625E7B7
:102280000224FBE74C2100202DE9F04F884687B05F
:102290000021994615468346196000F0C1FE0028CA
:1022A00012D10BF58054E07900280DD1A079C00738
:1022B00009D0D4E90201081A01274FF0020A854229
:1022C00000D90546A2E0072007B0BDE8F08F2068DE
:1022D000A16800F580535E89B1FBF6F206FB12128D
:1022E000002A73D1B1FBF6F29B785B1E1A4012F004
:1022F000FF0610D129B1626A2AB15846FFF746FAA3
:1023000004E0206902E0616900F094FB02281FD319
:10231000411C55D0606161692068FFF74EFAB8B181
:1023200030440090206800F580504189B5FBF1F100
:10233000039151B3721881788A4201D9891B0391A4
:1023400040784146039B009AFFF736FEC0BB03E08E
:1023500084F807A00220B7E7A07940060ED5A1694E
:102360000098081A0399884208D2216801F5805123
:102370004A89594600FB028000F0D2FC206800F533
:10238000805046890398464336E0A26900998A4204
:102390001AD0A179490609D5407801235946FFF79B
:1023A00025FE68B9A07920F04000A07120680123C3
:1023B00000F5805059464078009AFFF7FDFD18B1AE
:1023C000E771012080E701E00098A0612068A16822
:1023D00000F580504089B1FBF0F200FB1212861A22
:1023E000AE4200D92E46B1FBF0F200FB1211594467
:1023F0003246404600F094FCA068B0443044A060EF
:10240000D9F800008119AD1BC9F80010002D7FF428
:102410005EAF002058E770B5054600F001FE0028C9
:1024200011D105F58054A1798A060CD548060FD53F
:102430002068012300F5805029464078A269FFF703
:10244000D5FD08B1012070BDA07920F04000A07139
:10245000E169206800F074FC0028F4D1256AE87A6C
:1024600040F02000E872207B2877A089000A687776
:10247000E068000CA877E068000EE877284621693C
:1024800000F03CFD00F049FBA875010AE975010C5C
:102490002976000E68760020A874E874A0790121DE
:1024A00020F02000A071206800F5805001712068A4
:1024B000BDE8704000F037BD2DE9FC5F8846002183
:1024C000994615468346196000F0AAFD002808D1F8
:1024D0000BF58054E079002803D1A079800702D45D
:1024E0000720BDE8FC9FA068012741194FF0020AB0
:1024F00081427AD3B5E02068A168024600F5805099
:102500004389B1FBF3F603FB1616002E6ED1B1FB27
:10251000F3F38078401E034013F0FF0618D129B171
:10252000606A38B15846FFF731F907E0206938B9D9
:10253000002100E061691046FFF74DF9002854D0F2
:10254000012833D0411C62D06061216901B920614A
:10255000A07940060DD52068012300F5805059462A
:102560004078A269FFF742FDF0BBA07920F040005F
:10257000A07161692068FFF720F9B8B1304401907B
:10258000206800F580504189B5FBF1F1009171B3ED
:10259000721881788A4201D9891B0091DDE90032E5
:1025A00040784146FFF722FDF0B903E084F807A028
:1025B000022096E7A1690198081A009988420CD276
:1025C000216801F580514A8900FB0281584600F0DC
:1025D000A7FBA07920F04000A071206800F5805092
:1025E00046890098464332E011E03DE014E0FFE701
:1025F000A169019A91420DD0D4E90212914209D207
:10260000407801235946019AFFF7D6FC10B1E771D3
:10261000012066E70198A0612068A16800F580505C
:102620004089B1FBF0F200FB1212861AAE4200D9CB
:102630002E46B1FBF0F200FB121101EB0B0032460B
:10264000414600F06DFBA07940F04000A071A06809
:10265000B0443044A060D9F80000AD1B3044C9F844
:102660000000002D7FF447AFD4E90201884200D971
:10267000E060A07940F02000A071002031E7000068
:10268000802804D30B4A51B1FF2801D9002070479C
:1026900002EB4000A0F58050B0F8000F704732F810
:1026A0001130834203D0491C89B28029F7D380318D
:1026B000C8B27047263100080021064B00E0491CD3
:1026C00033F81120002A04D08242F8D1024830F8B1
:1026D0001100704726320008063400082DE9FF5F1C
:1026E0004FF0000B0546C0F800B01746084600F052
:1026F00016FA060003D50B2004B0BDE8F09F8F4802
:1027000050F826409CB12C6004F58055287820B103
:102710006878FFF75FFCC1070BD085F800B0F0B216
:102720006870FFF727FCC10708D00320E4E70C20FE
:10273000E2E70FB1400704D40020DDE71FB14007F6
:1027400001D50A20D8E741F20A016218687802210F
:10275000FFF724FC78BB6889B0F5007F34D3B0F56F
:10276000805F31D8002631462046FEF791FF0128D0
:1027700026D100204FEA0D0204EB001191F8C2317E
:1027800001F5DF712BB10B7AD1F8091043EA012171
:1027900000E0002142F82010401C0428ECD3002760
:1027A0004FEA020858F8276036B131462046FEF756
:1027B0006FFF10B90AE007E002207F1C042FF1D35D
:1027C000032801D0F0BB01E0012095E7B4F80B002D
:1027D000B5F80AC060455FD1E18A29B994F82400B0
:1027E000D4F8251040EA0121A961207C8A46E870CE
:1027F000012801D002284FD100FB01F9607BA870AD
:1028000000B3411E084247D1B4F811104FEA5C12E0
:10281000B1FBF2F302FB131329819BB9B4F81370D7
:102820002FB994F82030D4F8217043EA0727E389C0
:1028300043B1B1FBF2F803EB0902424497422BD3B8
:10284000BF1A00E028E0B7FBF0F028B3012740F6FC
:10285000F678404500D302274FF6F678404500D37E
:102860000327801C3244AA6233446861C5E90763C8
:10287000032F13D081B103EB09016962022F18D035
:1028800000F0010100EB400001EB5000401E6044ED
:10289000B0FBFCF151450ED90D202DE70029FBD1ED
:1028A00094F82C10D4F82D20800041EA02216962AE
:1028B000ECE74000EAE74FF0FF302861E860802055
:1028C0006871032F2ED1208E01282BD12046711C38
:1028D00000F036FA30BB85F805B0B4F8FE01A0F57B
:1028E0002A4155391ED12078D4F8011040EA012040
:1028F0001349884216D194F8E401D4F8E51140EA6E
:102900000120104988420DD194F8E801D4F8E9116A
:1029100040EA0120286194F8EC01D4F8ED1140EA76
:102920000120E86005492F70091F0888401C0880B5
:10293000E8802046FEF718FFFEE600003C0000207D
:10294000525261417272416173B505460198017836
:102950002F2901D05C2901D1401C019005F580543C
:102960000026A66001980078202805D2002128467C
:10297000FFF7B2FA66617CBD01A92846FEF77EFF2B
:102980000028F8D12846FFF799F8A169C97A28B13B
:102990000428F0D14907EED405207CBD4907FCD4BA
:1029A0006169C87AC006F7D5206800F023F9A060F5
:1029B000E2E700007CB516461C4605460B2200F0F7
:1029C000AFF9052C11D91A4A0CE00021B61C234698
:1029D000044663F35F044008E30300D55440491CF8
:1029E0001029F4D330880028EFD107214FEA0D02D7
:1029F00004F00F003030392800D9C01D5054491E52
:102A00002409F5D17E205054002000E0401C88426B
:102A100002D22B5C202BF9D1082902D2535C491C2D
:102A200000E020232B54401C0828F5D37CBD000077
:102A3000211001002DE9F0470D46074602290DD36C
:102A400007F580546069A84208D920784FF0FF3616
:102A5000012807D0022832D0032844D0012630466E
:102A6000BDE8F087618905EB5508B8FBF1F0216AF4
:102A70000144384600F064F90028F0D16189B8FBC0
:102A8000F1F201FB128008F1010817F80090B8FB81
:102A9000F1F0216A0144384600F052F90028DED1F5
:102AA0006189B8FBF1F201FB1280395C49EA01202F
:102AB000E90701D00609D2E7C0F30B06CFE760892A
:102AC000216A4008B5FBF0F00144384600F038F9BF
:102AD0000028C4D161896800B0FBF1F201FB12004B
:102AE00038440688BBE76089216A8008B5FBF0F0AE
:102AF0000144384600F024F90028B0D16189A800CB
:102B0000B0FBF1F201FB120038440178D0F801006B
:102B100041EA002020F07046A1E70020704710B580
:102B200004464FF0FF302268002A13D0114600E01F
:102B3000491C0B78202B0ED33A2BF9D112F8013B0C
:102B4000303B0A2B06D28A4204D1002B02D1491C09
:102B50001846216010BD002010BD0000F0B500F542
:102B6000805323481C68002202EB420550F8256080
:102B7000A64209D100EB85059F686E68BE4203D16D
:102B80002D89DE88B54202D0521C022AECD3022ADB
:102B900018D1002202E0521C022A05D202EB4205A3
:102BA00050F82550002DF6D1022A13D002EB420531
:102BB00040F8254000EB85049E686660DB88238131
:102BC00000236381002902EB420100EB8101498966
:102BD00002D019B10020F0BD491C01E04FF4807112
:102BE00002EB420300EB83004181501CF0BD00006A
:102BF00034210020024602F58052488B1278032AC5
:102C000002D1898A40EA01407047000086B0FDF792
:102C1000ABFCFEF734FC0025314800950195029588
:102C20000395816941F004018161816901F004012A
:102C30000491816941F0080181618069294C00F0AB
:102C400008000490002201212046FDF779FC0220B3
:102C5000012103900091CDE9011569462046FDF759
:102C60007FFBFEF759FAFEF749FA01221EA11F4821
:102C7000FFF7E0F91E4C002820702FD10A221DA179
:102C80002048FFF709FA2070A0B914221EA1684657
:102C9000FDF79AFA231D122269461A48FFF70CFC29
:102CA00020701848FFF7B7FB1648FFF7ADF964200E
:102CB000FDF744FB01220FA11248FFF7EDF9207048
:102CC00060B90B4B3F22083314490E48FFF7DCFA7A
:102CD0001248A16845540B48FFF796F9FEE700003B
:102CE00000100240000C014000000000980000208D
:102CF00000000020686F6363756E6765742E7478DA
:102D000074000000C810002048656C6C6F20486F8C
:102D1000632043756E67204554000000F4200020B6
:102D200004E000BF11F8013B00F8013B521EF9D24C
:102D30007047C9B201E000F8011B521EFBD2704778
:102D40002DE9F04100F580540746E06A0E46002563
:102D5000B0420ED0384600F03AF9050009D160784B
:102D6000012332463946FFF727F908B16E1E0125C7
:102D7000E6622846BDE8F0812DE9F04717460D468A
:102D80000646022904D306F580546069A84202D899
:102D90000220BDE8F087217807F0FF094FF0010A13
:102DA000012924D002295DD00329F1D16089216A4B
:102DB0008008B5FBF0F001443046FFF7C1FF002862
:102DC000E7D16289A900B1FBF2F302FB13118A1962
:102DD0004FF07043D2F8011003EA0121394311701A
:102DE0000B0A53700B0C9370090ED17050E061897F
:102DF00005EB5508B8FBF1F0216A01443046FFF7B6
:102E00009FFF0028C5D16189B8FBF1F201FB128058
:102E1000304408F10108E90703D0017869F31F1174
:102E200000E03946017084F804A06189B8FBF1F034
:102E3000216A01443046FFF783FF0028A9D1628947
:102E4000B8FBF2F302FB13813144EA0702D0C7F367
:102E5000071205E00A78C7F3032302F0F0021A43D1
:102E60000A7015E06089216A4008B5FBF0F0014462
:102E70003046FFF765FF00288BD162896900B1FBFE
:102E8000F2F302FB131131443A0A81F800904A70C0
:102E900084F804A07DE72DE9F0410F468046022921
:102EA00018D308F580556869B84213D900261FE089
:102EB00039464046FFF7BEFD04001CD0012C09D066
:102EC000601C09D0002239464046FFF755FF060036
:102ED00011D103E002260EE001260CE02869411C16
:102EE00005D0401C2861687940F0010068712746D0
:102EF0006869B842DCD83046BDE8F08181760A0ABC
:102F0000C2760A0C0275090E417570470146002011
:102F10000B22430803EBC01011F8013B521E18446A
:102F2000C0B2F6D1704770B5044600F050F8060004
:102F30004BD104F58055287803283FD168790128C2
:102F40003CD16A8900212046FFF7F3FE552084F822
:102F5000FE01AA2084F8FF015220207060706120D9
:102F6000A0704121E170722284F8E42184F8E52107
:102F700084F8E61184F8E701286984F8E801010A79
:102F800084F8E911010C84F8EA11000E84F8EB01D1
:102F9000E86884F8EC01010A84F8ED11010C84F86A
:102FA000EE11000E84F8EF01EA690123521CEA6277
:102FB00068782146FFF71AF80020687100226878C7
:102FC0001146FEF7EBFF00B10126304670BD2DE93A
:102FD000F04100F58054804620790027E8B1E56A89
:102FE000607801232A464146FFF700F808B101271F
:102FF00013E000202071206AA169281A88420CD2AF
:10300000E67808E0A0690123054460782A46414635
:10301000FEF7ECFF761E022EF4D23846BDE8F081B2
:1030200010B580B100F58050016861B101F58051A3
:103030000A7842B1CA888088824204D14878FEF773
:10304000C9FFC00700D0092010BD0102020304051A
:10305000060708090A0B0C0D0E0F101000000000E7
:10306000000000000102030406070809809A90B6D8
:103070008EB78F80D2D3D4D8D7DE8E8F909292E243
:1030800099E3EAEB59999A9D9C9D9E9FB5D6E0E9FC
:10309000A5A5A6A7A8A9AAABAC21AEAFB0B1B2B303
:1030A000B4B5B6B7B8B9BABBBCBDBEBFC0C1C2C368
:1030B000C4C5C7C7C8C9CACBCCCDCECFD0D1D2D357
:1030C000D4D5D6D7D8D9DADBDCDDDEDFE0E1E2E348
:1030D000E5E5E6E7E7E9EAEBEDEDEEEFF0F1F2F337
:1030E000F4F5F6F7F8F9FAFBFCFDFEFF010305071E
:1030F000090E10121416181C1E0000040002000114
:1031000080004000200010000800040002000000C1
:103110000080004000200010000800400020001047
:10312000000800040002C700FC00E900E200E4001F
:10313000E000E500E700EA00EB00E800EF00EE0049
:10314000EC00C400C500C900E600C600F400F600AB
:10315000F200FB00F900FF00D600DC00F800A3003D
:10316000D800D7009201E100ED00F300FA00F10071
:10317000D100AA00BA00BF00AE00AC00BD00BC0088
:10318000A100AB00BB0091259225932502252425A3
:10319000C100C200C000A9006325512557255D2547
:1031A000A200A5001025142534252C251C2500255A
:1031B0003C25E300C3005A25542569256625602572
:1031C00050256C25A400F000D000CA00CB00C80038
:1031D0003101CD00CE00CF0018250C25882584258F
:1031E000A600CC008025D300DF00D400D200F5007B
:1031F000D500B500FE00DE00DA00DB00D900FD00DE
:10320000DD00AF00B400AD00B1001720BE00B60075
:10321000A700F700B800B000A800B700B900B300DD
:10322000B200A025A0006100620063006400650098
:1032300066006700680069006A006B006C006D0042
:103240006E006F00700071007200730074007500F2
:1032500076007700780079007A00A100A200A30030
:10326000A500AC00AF00E000E100E200E300E400F4
:10327000E500E600E700E800E900EA00EB00EC000A
:10328000ED00EE00EF00F000F100F200F300F400BA
:10329000F500F600F800F900FA00FB00FC00FD0064
:1032A000FE00FF00010103010501070109010B01F7
:1032B0000D010F01110113011501170119011B0166
:1032C0001D011F01210123012501270129012B01D6
:1032D0002D012F0131013301350137013A013C0144
:1032E0003E01400142014401460148014B014D01AC
:1032F0004F01510153015501570159015B015D0116
:103300005F01610163016501670169016B016D0185
:103310006F0171017301750177017A017C017E01F2
:103320009201B103B203B303B403B503B603B70309
:10333000B803B903BA03BB03BC03BD03BE03BF0399
:10334000C003C103C303C403C503C603C703C80343
:10335000C903CA033004310432043304340435048D
:1033600036043704380439043A043B043C043D0471
:103370003E043F0440044104420443044404450421
:1033800046044704480449044A044B044C044D04D1
:103390004E044F045104520453045404550456047B
:1033A0005704580459045A045B045C045E045F0427
:1033B0007021712172217321742175217621772169
:1033C000782179217A217B217C217D217E217F2119
:1033D00041FF42FF43FF44FF45FF46FF47FF48FFD1
:1033E00049FF4AFF4BFF4CFF4DFF4EFF4FFF50FF81
:1033F00051FF52FF53FF54FF55FF56FF57FF58FF31
:1034000059FF5AFF000041004200430044004500BC
:1034100046004700480049004A004B004C004D0060
:103420004E004F0050005100520053005400550010
:1034300056005700580059005A002100E0FFE1FFF4
:10344000E5FFE2FFE3FFC000C100C200C300C4000B
:10345000C500C600C700C800C900CA00CB00CC0028
:10346000CD00CE00CF00D000D100D200D300D400D8
:10347000D500D600D800D900DA00DB00DC00DD0082
:10348000DE007801000102010401060108010A01C1
:103490000C010E01100112011401160118011A018C
:1034A0001C011E01200122012401260128012A01FC
:1034B0002C012E01300132013401360139013B016A
:1034C0003D013F0141014301450147014A014C01D2
:1034D0004E01500152015401560158015A015C013C
:1034E0005E01600162016401660168016A016C01AC
:1034F0006E01700172017401760179017B017D0119
:103500009101910392039303940395039603970308
:10351000980399039A039B039C039D039E039F03B7
:10352000A003A103A303A403A503A603A703A80361
:10353000A903AA03100411041204130414041504AB
:1035400016041704180419041A041B041C041D048F
:103550001E041F042004210422042304240425043F
:1035600026042704280429042A042B042C042D04EF
:103570002E042F04010402040304040405040604B9
:103580000704080409040A040B040C040E040F04C5
:103590006021612162216321642165216621672107
:1035A000682169216A216B216C216D216E216F21B7
:1035B00021FF22FF23FF24FF25FF26FF27FF28FFEF
:1035C00029FF2AFF2BFF2CFF2DFF2EFF2FFF30FF9F
:1035D00031FF32FF33FF34FF35FF36FF37FF38FF4F
:1035E00039FF3AFF00000000083600080000002004
:1035F0004000000028010008483600084000002074
:1036000078290000440100080000000000000000CC
:1036100000000000D11400083F160008151600082D
:1036200043160008ED15000800000000000000002F
:1036300001000000100000000000000000127A00ED
:08364000000000000000000082
:04000005080000ED02
:00000001FF
